12:01:44.824162 IP 10.244.0.1.42452 > ingress-ingress-nginx-controller-6b6796b77d-qpd68.80: Flags [S], seq 2650924040, win 29200, options [mss 1460,nop,nop,TS val 2982776464 ecr 0,nop,wscale 9], length 0

		0x0000:  4500 003c 66dc 4000 3f06 be2f 0af4 0001
		0x0010:  0af4 00c8 a5d4 0050 9e01 e408 0000 0000
		0x0020:  a002 7210 59b5 0000 0204 05b4 0101 080a
		0x0030:  b1c9 8e90 0000 0000 0103 0309
4500：IPV4，IP包头长度5个32字节

003c：总长度60字节

66dc：包唯一标识

4000：标志字段，片偏移

3f06：3f-TTL   06-tcp协议

be2f：MAC

0af4 0001：src ip 10.244.0.1

0af4 00c8：dest ip 10.244.0.200

a5d4：src port 42452

0050：dest port 80

9e01 e408：seq包序号2650924040

0000 0000：确认序号，0，未设置ACK，确认序号无效

a002：TCP包头长度，标志位 1010 000000 000010（10个32位） SYN

7210：win窗口大小29200

59b5：校验和

0000：紧急指针

0204 05b4 0101 080a：选项字段



12:02:12.079714 IP 10.244.0.1.60679 > ingress-ingress-nginx-controller-6b6796b77d-qpd68.80: Flags [S], seq 2184482923, win 65535, options [mss 1460,nop,wscale 6,nop,nop,TS val 867354922 ecr 0,sackOK,eol], length 0

	0x0000:  4500 0040 0000 4000 3e06 2608 0af4 0001
	0x0010:  0af4 00c8 ed07 0050 8234 906b 0000 0000
	0x0020:  b002 ffff 2377 0000 0204 05b4 0103 0306
	0x0030:  0101 080a 33b2 c92a 0000 0000 0402 0000
4500: IPV4，IP包头长度5个32位

0040: 总长度64字节

0000：包唯一标识

3e06：3e-TTL   06-tcp协议

2608：MAC

0af4 0001：src ip 10.244.0.1

0af4 00c8：dest ip 10.244.0.200

ed07：src port 60679

0050：dest port 80

8234 906b：seq包序号2184482923

0000 0000：确认序号，0，未设置ACK，确认序号无效

b002：TCP包头长度，标志位 1011 000000 000010（11个32字节） SYN

ffff：win窗口大小65535

2377：校验和

0000：紧急指针

0204 05b4 0103 0306 选项字段











[mss 1460,sackOK,TS val 2985856028 ecr 0,nop,wscale 9]

0204 05b4 0402 080a不成功

0204 05b4 0402 080a成功

[mss 1460,sackOK,TS val 637964770 ecr 0,nop,wscale 7]



2608 0dc2 0000 0000 0103 0307

260f db21 0000 0000 0103 0307



b1fa 6310 0000 0000 0103 0309

b201 f5c8 0000 0000 0103 0309